S0180000476363426F61726450726F6A656374312E737265630F
S214080000D8C707207D1B0800791B0800791B080045
S214080010791B0800791B0800791B080000000000FF
S2140800200000000000000000000000002902080090
S214080030791B080000000000A9020800E502080075
S214080040791B0800791B0800791B0800791B080033
S214080050791B0800791B0800791B0800791B080023
S214080060791B0800791B080000000000211A080008
S214080070351A0800491A08005D1A08000000000032
S21408008000000000791B0800791B0800791B08008F
S214080090791B0800791B0800791B0800791B0800E3
S2140800A0791B080000000000791B0800791B08006F
S2140800B0791B0800791B0800791B0800791B0800C3
S2140800C0791B0800791B0800791B0800791B0800B3
S2140800D0791B0800791B0800791B0800791B0800A3
S2140800E0791B0800791B0800791B0800791B080093
S2140800F0791B080010B5054C237833B9044B13B1A7
S2140801000448AFF300800123237010BD780507204C
S214080110000000009C2308000C4B43B10C4810B5A7
S2140801200C49AFF300800C48036823B910BD0A4891
S214080130036833B97047094B002BF7D0BDE8104069
S2140801401847064B002BF5D0184700BF00000000E4
S2140801509C2308007C0507209C230800000000005C
S21408016000F1080343604FF0FF328260C36003610A
S21408017000230360704700230361704743685A688A
S2140801804A6042688A605A689160596041600861AE
S214080190036801330360704710B40C68B4F1FF3F7E
S2140801A015D000F10803C2681268944204D35B684D
S2140801B05A6812689442FAD25A684A6091608B600C
S2140801C05960086103680133036010BC704703690F
S2140801D0F2E7436882689A60836842685A600369EF
S2140801E05A68904204BF82685A60002202611A6800
S2140801F0013A1A601868704703480068006880F378
S214080200088862B600DF00BF08ED00E04FF0807394
S21408021040F8043C40F8081C002340F80C3C40F822
S214080220202C403870470000064B19680868B0E86C
S214080230F00F80F309884FF0000080F311884EF025
S2140802400D0E7047A0A507204FF08052014B1A608C
S214080250704700BF04ED00E0EFF311804FF0A001F7
S21408026081F311887047002008B5034B9847034A66
S21408027013680133136008BD5902080038010720C7
S21408028080F311887047000008B5054A1368013BDB
S214080290136003B108BD0020024B9847FAE700BF79
S2140802A03801072081020800EFF309800C4B1A6812
S2140802B020E9F00F10602DE908404FF0A00080F309
S2140802C0118800F099FE4FF0000080F31188BDE811
S2140802D0084019680868B0E8F00F80F30988704786
S2140802E0A0A5072008B54FF08052054B1A60054BAD
S2140802F09847054B98470020044B984708BD00BF11
S21408030004ED00E059020800490D080081020800C3
S214080310034A044B1A600722043B1A60704700BF62
S2140803201F48010014E000E010B5094B1A6842F4B3
S21408033070021A601A6842F070421A60054B9847B5
S2140803400024054B1C60054B9847204610BD00BF8F
S21408035020ED00E01103080038010720F901080025
S21408036010B4134A00E01A4613688342FBD3516858
S2140803705418A04209D041684418A3420AD0036022
S214080380904218BF106010BC704740680144516026
S2140803901046F0E7074C2468A34206D05B68194469
S2140803A0416013681B680360EAE70360E8E700BF7C
S2140803B098A507209405072038B504462A4B984781
S2140803C02A4B1B688BB1002C47D004F1100212F0A0
S2140803D0070F1CBF22F007020832511E49F6FE73AB
S2140803E099423CD822490C6816E0214A214B1360F2
S2140803F00021516049F6F07298181C4D286049F69D
S214080400F475595199505A6018601B4A1368103B86
S2140804101360D8E721461C4663689A4202D92368C7
S214080420002BF7D1114B1B689C421AD00D6810356B
S21408043023680B6063689B1A202B08D80E4A13683B
S21408044061685B1A13600D4B9847284638BDA0189C
S214080450436062600A4B9847F0E70025F3E70025FB
S214080460F1E70025EFE700BF190D080094050720FF
S21408047098A50720980507203C010720710E08005C
S2140804806103080080B110B50446084B9847084A2F
S21408049054F80C3C11680B441360A4F11000054B8B
S2140804A09847054B984710BD704700BF190D0800C0
S2140804B03C01072061030800710E080010B50446C9
S2140804C0036C5BB903681BB1A36B0133A36310BD50
S2140804D04068124B984700236360F5E76AB91A46E6
S2140804E080680F4B9847A368226C1344A360626821
S2140804F09342E9D32368A360E6E71A46C068084B28
S2140805009847226C5242E3681344E36021688B42A2
S214080510DAD263681A44E260D6E700BF25130800FB
S2140805201D20080038B50346006858B11A6CDC6808
S2140805301444DC605D68AC4228BFD8600846D968B9
S214080540014B984738BD00BF1D200800F8B5044683
S2140805501F4B9847A36C002B14DD636A93B104F114
S21408056024061C4D1C4F07E0A36C013BA364A36C38
S214080570002B07DD636A2BB13046A8470028F3D066
S214080580B847F1E74FF0FF33A364144B9847104B76
S2140805909847636C002B14DD236993B104F11006A9
S2140805A00C4D0D4F07E0636C013B6364636C002BD6
S2140805B007DD23692BB13046A8470028F3D0B84793
S2140805C0F1E74FF0FF336364044B9847F8BD00BF6C
S2140805D0690208003D1108006D120800890208002B
S2140805E038B508B30D460446174B98472268216C61
S2140805F0E36B03FB01F3D01860600020A063A260E1
S2140806005B1A1344E3604FF0FF336364A36495B941
S21408061023692BB104F110000C4B9847012807D02A
S2140806200B4B9847012038BD0A4B984700BFFDE79B
S214080630094B9847F4E704F11000084DA84704F161
S2140806402400A847ECE700BF690208003D1108002F
S21408065089020800590208004902080061010800DA
S214080660F8B5D8B10D461746064650200D4B9847A4
S214080670044698B105FB06F001300A4B98472060FF
S21408068048B1E663256401212046074B984784F85D
S2140806904D702046F8BD2046044B9847044B9847B3
S2140806A000BFFDE7B9030800E10508008504080057
S2140806B0590208002DE9F04F85B0019248B18846E6
S2140806C09946044649B10027384EDFF80CA1384D44
S2140806D02EE0384B984700BFFDE7036C1BB1354B3F
S2140806E0984700BFFDE70027EEE74A464146204602
S2140806F0314B9847636A2BB92D4B9847012005B0B4
S214080700BDE8F08F04F124002C4B98470128F3D15C
S2140807102B4B9847F0E7264B98470020EFE702A8B0
S214080720D0470FE02046274B9847274B9847012786
S214080730B047A26BE36B9A42D7D3019B002BEAD053
S214080740002FECD0A847214B9847B047636CB3F10D
S214080750FF3F04BF00236364A36CB3F1FF3F04BFED
S2140807600023A364A84701A902A8194B9847A8B96B
S214080770B047D4F838B0E76BA847BB45D2D1019943
S21408078004F11000134B984720460E4B98470E4B23
S21408079098470028CBD10A4B9847C8E72046094B0C
S2140807A09847094B98470020A9E700BF6902080048
S2140807B08902080059020800BD0408003D11080017
S2140807C0490208004D050800710E0800190D0800BA
S2140807D0E911080099100800C11108002DE9F04138
S2140807E090B10E4615469846044689B11B4B984765
S2140807F00746A26BE36B9A4211D300243846184B7F
S21408080098472046BDE8F081144B984700BFFDE79F
S214080810036C002BEAD0114B984700BFFDE7424611
S214080820314620460F4B9847A36CB3F1FF3F0AD1D9
S214080830636A6BB104F124000B4B984750B15DB165
S21408084001242C60DAE7A36C0133A3640124D5E7FE
S2140808500124D3E70124D1E70124CFE75902080091
S21408086081020800BD0408003D1108002DE9F04784
S21408087084B0019248B188469946044649B1002793
S214080880464EDFF84CA1464D4BE0464B984700BF16
S214080890FDE7036C1BB1434B984700BFFDE70027F5
S2140808A0EEE7E568414620463F4B9847B9F1000F0A
S2140808B017D1A36B013BA363236813B93B4B984737
S2140808C0606023693BB104F11000394B9847012852
S2140808D001D1384B9847324B9847012004B0BDE801
S2140808E0F087E560636A002BF5D004F12400304BEE
S2140808F098470028EFD02F4B9847ECE7284B9847A7
S2140809000020EBE702A8D04714E0B04760682A4BFF
S2140809109847A8472CE02046284B9847284B9847E6
S2140809200127B047A36B002BBBD1019B002BE5D05A
S214080930002FE7D0A847234B9847B047636CB3F11E
S214080940FF3F04BF00236364A36CB3F1FF3F04BFFB
S2140809500023A364A84701A902A81B4B9847B0B96F
S214080960B047A76BA847002FD5D12368002BCCD05B
S214080970019904F12400154B984720460F4B9847D9
S2140809800F4B98470028CBD10A4B9847C8E7204614
S2140809900A4B98470A4B984700209FE769020800C9
S2140809A0890208005902080025050800791208007F
S2140809B03D11080049020800A51208004D05080068
S2140809C0710E0800190D0800E911080099100800B2
S2140809D0C111080010B40A4B1B684BB10123084C20
S2140809E054F833202AB10133082BF9D110BC7047CC
S2140809F00023034A42F8331002EBC3035860F5E7B6
S214080A0048A7072038B504460D460E4B9847636C32
S214080A10B3F1FF3F04BF00236364A36CB3F1FF3F49
S214080A2004BF0023A364084B9847A36B1BB120465A
S214080A30064B984738BD294604F12400044B9847CE
S214080A40F5E700BF69020800890208004D0508009E
S214080A50F910080010B50F4B1B6858600E4B1B6842
S214080A6098420ED304460D4B18680A4B1968043191
S214080A700B4B98470B4B1B689C423CBF094B1C60B2
S214080A8010BD094B1868034B19680431044B984786
S214080A9010BD00BFA0A507209CA60720A4A5072078
S214080AA09901080040010720A8A507202DE9F84F5E
S214080AB00A9FDDF82C900C9E48B1884615469B4642
S214080AC08246042F07D9604B984700BFFDE75E4B68
S214080AD0984700BFFDE74C205C4B98470446002823
S214080AE054D0002E48D00663AA00A5213046584B9D
S214080AF0984705F18045013D236B03EB850323F0FA
S214080B0007050A22414604F13400524B9847002351
S214080B1084F83D30E762A76404F1040840464E4E68
S214080B20B04704F11800B0472461C7F10503A36174
S214080B3064625A4651462846484B9847206010F04B
S214080B40070F27D1B9F1000F01D0C9F80040444B70
S214080B509847444A136801331360434B1B68EBB14C
S214080B60424B1B68002B40D13F4B1B68DB6A9F42F9
S214080B7024BF3D4B1C6038E0A800344B9847064617
S214080B8020630028B0D12046394B98474FF0FF30F5
S214080B90BDE8F88F2C4B984700BFFDE7324B1C602A
S214080BA01368012B21D1334E3046334DA84706F142
S214080BB01400A84706F12800A84706F13C00A847F5
S214080BC006F15000A847DFF8E4904846A8472B4EA1
S214080BD03046A8472A48A8472A48A8472A48A84780
S214080BE02A4BC3F800902A4B1E60E06A294B1B6804
S214080BF0984284BF274B1860274A1368236401333A
S214080C001360264B1B68984284BF244B186000EB81
S214080C1080004146174B03EB8000214B9847214B39
S214080C209847124B1B684BB10F4B1B68DB6A9F42F9
S214080C3007D91D4B98470120BDE8F88F0120BDE86D
S214080C40F88F0120BDE8F88F59020800B90308009C
S214080C5009210800A5210800770108000D020800F0
S214080C606902080010A60720A0A5072070A607207E
S214080C7085040800ACA507206101080040A60720E7
S214080C805CA6072088A6072074A60720A4A5072028
S214080C90A8A5072028A607201CA6072024A6072004
S214080CA07D01080089020800490208002CA60720D2
S214080CB010B584B000230393029301930093822215
S214080CC00D490E480E4CA047012802D080B104B04A
S214080CD010BD0C4B98470128F8D10B4B98470122BA
S214080CE00A4B1A6000220A4B1A600A4B9847EEE72E
S214080CF0054B984700BFFDE728230800710F08003A
S214080D00AD0A08001D1408005902080070A607203E
S214080D109CA6072029030800024A136801331360BB
S214080D20704700BF18A6072010B5044B9847044B19
S214080D301C68044B9847204610BD00BF690208008F
S214080D409CA60720890208003D4B1B68002B6FD124
S214080D502DE9F0413B4B1A6801321A601B68ABB9A3
S214080D60394B1B681B68002B28D1374B1968374A44
S214080D7010681860116036490A6801320A601B68F4
S214080D801B68FBB94FF0FF32324B1A602D4B1A68BE
S214080D90304B1B689A4250D32B4B1B681B68CBB151
S214080DA0294B1B68DB68DC686368264A126893422E
S214080DB016D8294E294FDFF8B4802FE0284B9847DD
S214080DC000BFFDE7204B1B68DB68DB685A68214BD1
S214080DD01A60DBE74FF0FF321E4B1A60BDE8F08161
S214080DE01C4A1360BDE8F081E06A3B68984288BFF9
S214080DF0386000EB8000294608EB8000194B9847BE
S214080E00114B1B681B68002BE4D00F4B1B68DB6874
S214080E10DC6863680B4A12689342E1D8251D2846A9
S214080E20B047A36A002BDFD004F11800B047DBE711
S214080E300D4A1368013313607047BDE8F08100BFA0
S214080E4018A607209CA60720A4A50720A8A5072063
S214080E5058A6072040010720D301080024A607202B
S214080E60590208007D01080014A60720ACA5072033
S214080E702DE9F8432F4B1B681BB92F4B984700BF2B
S214080E80FDE72E4B98472B4B1A68013A1A601B68E9
S214080E90002B4DD12A4B1B682BB10024DFF8CC80E1
S214080EA0284F294E23E00024284B98472046BDE8C3
S214080EB0F883D8F80C30DD6805F11800B84705F156
S214080EC004094846B847E86A3368984288BF3060DD
S214080ED000EB800049461E4B03EB80001D4B9847ED
S214080EE01D4B1B68EA6ADB6A9A4228BF0124D8F8B9
S214080EF00030002BDDD1194B1B6893B1174B1B68CC
S214080F0043B1174D154CA8472368013B2360236857
S214080F10002BF8D10022134B1A60134B9847012474
S214080F20C2E7012CF6D00F4B1B68012BBCD1F1E7AA
S214080F300024B9E718A60720590208006902080025
S214080F4010A60720D301080024A607208902080057
S214080F50ACA507207D010800A0A5072014A6072039
S214080F60490D080054A60720490208005CA6072079
S214080F7080B5164DDFF87880154E24E0154B1B68B3
S214080F80012B1ED82B68002BF8D0C0473468B8470A
S214080F90002CF7D0104B9847F368DC68201D0F4BE1
S214080FA098470F4A1368013B13602B68013B2B6078
S214080FB00C4B9847206BDFF83C90C8472046C8473C
S214080FC0E0E7094B9847094FDCE700BF20A6072053
S214080FD088A60720ACA5072069020800D3010800E8
S214080FE010A607208902080049020800710E0800AA
S214080FF0190D080085040800214B1B68EBB910B5CD
S214081000204B1B6803EB83039B001F4AD358C3B9C6
S2140810101C4B1B686BB11B4A1B491368013B1360CA
S214081020136803EB830351F8233053B91368002B76
S214081030F3D1164B984700BFFDE70122144B1A6000
S2140810407047104B1B68104A9900C81802EB8000BE
S214081050446864684460194402460832944209D0D9
S21408106003EB8303084A02EB83035B68DA68094BE1
S2140810701A6010BD6068044A02EB81025060EFE710
S21408108018A6072024A60720ACA5072059020800A2
S21408109054A60720A0A5072038B590B10C460E4DDB
S2140810A0296818310D4B9847286804300C4B984728
S2140810B0B4F1FF3F09D00B4B186820440A4B9847F9
S2140810C038BD0A4B984700BFFDE729680431084831
S2140810D0084B984738BD00BFA0A50720990108000F
S2140810E0D30108009CA60720550A080059020800E4
S2140810F074A607207D01080038B578B10D46094C5E
S21408110021681831084B984720680430074B9847E1
S214081110074B18682844074B984738BD064B98472E
S21408112000BFFDE7A0A507207D010800D301080041
S2140811309CA60720550A08005902080038B5C36857
S214081140DC681CB304F118052846154B9847154B60
S2140811501B68FBB9251D2846114B9847E06A124BB9
S2140811601B68984284BF104B186000EB8000294625
S2140811700E4B03EB80000E4B98470E4B1B68E06A3D
S214081180DB6A984234BF0020012038BD0A4B9847D6
S21408119000BFFDE729460948054B9847EDE700BF1D
S2140811A0D301080018A6072024A60720ACA5072008
S2140811B07D010800A0A50720590208005CA60720A4
S2140811C008B530B1054A12680260054A12684260DE
S2140811D008BD044B984700BFFDE700BF58A6072088
S2140811E09CA607205902080038B5E8B10D46044603
S2140811F0F1B1184B98472B68B3F1FF3F26D0164A33
S21408120012682168914204D0144A126861689142B3
S2140812101ED9124A12686168521A93420CD80124E1
S2140812200F4B9847204638BD0E4B984700BFFDE742
S2140812300C4B984700BFFDE7084A1268521A9B1ADB
S2140812402B602046084B98470024E9E70024E7E788
S2140812500124E5E76902080058A607209CA607208F
S2140812608902080059020800C11108000122014B32
S2140812701A60704754A60720014B1868704700BFCD
S214081280A0A50720054B1B6833B1054B1B68002B30
S2140812900CBF0120022070470020704770A6072068
S2140812A018A60720002831D038B50546C36A18495D
S2140812B00968C96A8B4211D215490968C96AC1F119
S2140812C00501816103EB8303124901EB830341693E
S2140812D0994204D00E4B1B68DB6AC36238BD041DF6
S2140812E020460D4B98470A4B1B68D86AE8620B4B9A
S2140812F01B68984284BF094B186000EB80002146A3
S214081300044B03EB8000064B984738BD704700BF78
S214081310A0A50720ACA50720D301080024A607200F
S2140813207D010800E8B138B50446C16A826C91426E
S21408133016D0051D28460B4B9847A06CE062C0F1F6
S2140813400503A361084B1B68984284BF064B1860C8
S21408135000EB80002946054B03EB8000044B9847BA
S21408136038BD7047D301080024A60720ACA507207F
S2140813707D01080008B54160006191420CD8D21A78
S21408138083699A4201D3012008BD011D094B1868DC
S214081390094B9847002008BD9A4201D2994206D2C6
S2140813A0011D064B1868044B9847002008BD01200D
S2140813B008BD00BFA4A6072099010800A0A607201C
S2140813C070B50D4B98470D4B1B6813B10C4B9847DF
S2140813D070BD0C4D28460C4EB0470C4C2046B04706
S2140813E00B4B1D600B4B1C6000220C2105200A4B82
S2140813F09847024B1860E9E769020800D4A6072058
S21408140089020800A8A6072061010800BCA60720D4
S214081410A0A60720A4A607206106080010B584B079
S2140814200B4B98470B4B1B6873B10023039302932F
S2140814300193042200924FF4827207490748084C29
S214081440A04708B104B010BD064B984700BFFDE79B
S214081450C1130800D4A60720302308006D1508001D
S214081460AD0A08005902080030B585B00F4C25684B
S214081470D5B11C460191029203903BB10023224647
S21408148001A928460A4CA04705B030BD094B984725
S21408149001284FF000030CBF089A1A4601A9034812
S2140814A00068054CA047EFE70020EDE7D4A6072024
S2140814B0DD07080085120800B50608002DE9F04784
S2140814C082B08146214B98478046214B1B6898423C
S2140814D015D30023C9F800301D4BC3F800804046DA
S2140814E002B0BDE8F087002100910B465246204620
S2140814F0184CA04728B9184B984700BFFDE7174E69
S214081500174F33681A68C2B1DA68D2F800A0DB68E9
S214081510DC68251D2846B847636A20469847E3696D
S214081520012BEED1A36953449A45DCD2636024614B
S214081530294630680B4B9847E3E70B4A106807497B
S214081540086013600123C9F80030C5E7290D0800B4
S214081550D0A607206914080059020800A0A607208C
S214081560D301080099010800A4A607202DE9F04138
S21408157086B0DFF868814D4B1B681A68002A00F0B1
S2140815808980DB681D684A4B984703A8494B9847EB
S2140815900646039B002B40F08680A8420FD2A91B64
S2140815A0454B1868454B9847454B984708B9454BEF
S2140815B0984702A83F4B984707463F4E36E0404BB1
S2140815C098473A4B1B68DB68DC68201DC047E36910
S2140815D0012B14D1A1692B463246294420463A4E9F
S2140815E0B04701280BD1002100910B462A46204619
S2140815F0364DA84718B9364B984700BFFDE7636ACB
S21408160020469847D5E70025C9E70499A16131B176
S2140816103B463A46394420462B4CA04706E02C4B1E
S214081620984700BFFDE720462A4B98472A4D0023D7
S2140816301A4603A93068A84700289CD0059C1CB108
S21408164063690BB1201DC047039B022BDDD0032B1B
S214081650E9D0002BEBD10499A0690B463A46014421
S2140816602046194DA8470128E0D1636A20469847C6
S214081670E369012BDAD1A269002100910B46049890
S21408168002442046114CA0470028CFD1104B98475B
S21408169000BFFDE7064B984703A8064B9847064643
S2140816A0039B002BAFD0064B984782E7A0A60720DF
S2140816B0190D0800BD140800D4A60720050A08005E
S2140816C0710E08004902080075130800691408001E
S2140816D059020800850408006D080800D3010800B0
S2140816E010B50E480E4B98473E2100200D4B9847E4
S2140816F00D4CA0470028FCD00C4B98470C4A0D4BC5
S2140817009A620D4CA0470028FCD010200B4B984737
S2140817100B4B98470148024B984710BD00BD010582
S214081720B1000720D51A0800291B0800391B080035
S214081730013F0D2000060E40491B0800711A0800DC
S214081740151C080010B54FF40042164B5A600B20C3
S214081750154CA0470C20A0470D20A0470E20A047F8
S2140817604FF060513B20114CA0474FF06051552078
S214081770A0474FF060515620A0470D496820A04763
S2140817800C495C20A0470C4A4FF440710B480C4BA0
S21408179098474FF000612B20A0474FF000612A20A1
S2140817A0A04710BD501A0E40591B080065180800BF
S2140817B0790000280100002801000008000E0E40ED
S2140817C0351908004264B1F1805F16D00BD849B1CC
S2140817D0B1F1006F05D1036F016F0B4023EA0203D6
S2140817E0036742607047B1F1405FFBD0B1F1605FBC
S2140817F0F8D0B1F1205FF4D17047036F1343036745
S214081800EFE7416412F0010F14BF4166016612F05B
S2140818100A0F14BF0162416212F0020F07D112F0DC
S214081820080F18BFC0F88410416101607047C0F8FF
S2140818308010F9E710B4019C416444B9016643B1CD
S214081840016542B941630161016010BC7047416699
S214081850F5E74165F5E70163F5E7C06C7047806C0E
S2140818607047000070B582B00D46430903F50013B3
S21408187003F207735C0201F0F043B3F1205F31D046
S21408188016D8B3F1006F1BD0B3F1805F16D100F005
S2140818901F000126864032464FF080512046224BD4
S2140818A0984715F0010F14BF66662666012017E0F4
S2140818B0B3F1405F21D0B3F1605F1ED000200FE087
S2140818C000F01F000126864032464FF00061204691
S2140818D0154B984715F0010F14BF6666266601205B
S2140818E002B070BD00F01F0101262A4606FA01F173
S2140818F020460E4B98473046F2E705F0605200F057
S2140819001F01012605EA06030093C5F38003B2F11A
S214081910605F14BF0022012206FA01F12046044C3B
S214081920A0473046DCE700BFC517080003180800C4
S2140819303518080070B582B005460E46144602F003
S214081940F043B3F1205F27D011D8B3F1006F16D05B
S214081950B3F1805F11D10A464FF08051194B984772
S21408196014F0010F14BF6E662E66012012E0B3F164
S214081970405F15D0B3F1605F12D000200AE00A4637
S2140819804FF000610F4B984714F0010F14BF6E66B6
S2140819902E66012002B070BD0B4B98470120F9E770
S2140819A004F0605204F001030093C4F38003B2F11C
S2140819B0605F14BF0022012231462846034CA04728
S2140819C00120E7E7C51708000318080035180800BF
S2140819D02DE9F041044688460E4B984705462046B2
S2140819E00D4B9847054013D00C4C04F1600603E0F5
S2140819F0B4420DD010345DB120684045F8D1616816
S214081A002942F5D0E3689847636825EA0305EFE7B7
S214081A10BDE8F0815B1808005F180800D8A6072004
S214081A2008B50B210148024B984708BD000E0E402A
S214081A30D119080008B50C210148024B984708BD83
S214081A4000100E40D119080008B50D210148024BB8
S214081A50984708BD00120E40D119080008B50E2197
S214081A600148024B984708BD00140E40D1190800DB
S214081A70174A136B23F0700318431063936E13F022
S214081A80080F0AD14FF4006311498A6E12F0080F46
S214081A9003D1013BF9D1012070470D4A136B23F09F
S214081AA0030343F002031363936E13F0080F0AD17F
S214081AB04FF4006306498A6E12F0080F05D1013B01
S214081AC0F9D101207047002070470020704700BFFA
S214081AD000060E40C8B9114A136A090289B223F4EF
S214081AE05C1323F0030343F45C1343F001030B4336
S214081AF01362936E13F0010FFBD0084A136A43F083
S214081B009B7343F480331362704704490B6A044A94
S214081B101A40044B13430B62704700BF00060E4082
S214081B20FCFFC8FE02003701024B986E00F48030B6
S214081B30704700BF00060E404FF00052014B9A62F5
S214081B40704700BF00060E40024B986E00F0020079
S214081B50704700BF00060E4000F07F00054BC3F834
S214081B600C01D3F80C2142F01022C3F80C210020F7
S214081B70704700BF00060E40FEE7000008B51C4B85
S214081B801C4A9A4210D01C4B194A9A420CD2013B66
S214081B909B1A23F0030304331344164951F8040B25
S214081BA042F8040B9A42F9D1144B154A9A420AD2C3
S214081BB0013B9B1A23F0030304331344002142F825
S214081BC0041B9342FBD10F4B23F0604222F07F02A6
S214081BD00D498A6003F16043B3F5801F03D28B6812
S214081BE043F000538B60094B9847094B9847FEE72C
S214081BF0000007209C23080074050720D4A70720A8
S214081C00780507200000080000ED00E0CD1F08005A
S214081C10411E08003D4B1B6B03F00303032B0ED835
S214081C20DFE803F0021C3838394B5B6913F0800F85
S214081C3014BF4FF400424FF4FA42364B1A60334B47
S214081C401B6B03F07003702B57D0304B1A6B31495F
S214081C50C2F302120B68D3400B6070472B4B1B6A0B
S214081C6013F0807F03D02C4A2A4B1A60E7E72B4AEA
S214081C70284B1A60254B1B6A03F07003102B05D0FF
S214081C80202BDCD1244A234B1A60D8E7244A214B60
S214081C901A60D4E71D4B1B6A13F0807F0CD01E4ACF
S214081CA01C4B1A60194B1B6B03F00303022B16D050
S214081CB01C4A184B1A60C2E7184A164B1A60134B90
S214081CC01B6A03F07003102B05D0202BEAD1124AAA
S214081CD0104B1A60E6E7124A0E4B1A60E2E70B4A08
S214081CE0916A926A0B48C1F30A41036801FB033301
S214081CF0D2B2B3FBF2F30360A1E7064A13680A49B7
S214081D00A1FB03135B081360704700BF00060E4074
S214081D10101A0E4044010720001BB70000093D00BA
S214081D2000127A00001C4E0EABAAAAAA80B50F4E67
S214081D3000240F4F0F4D2346642221463068A847DB
S214081D400028F8D0FB6B13F4800F4FF4800314BF01
S214081D507B633B630848094B98472346224621463F
S214081D6007480068074DA847E4E700BFA0A7072074
S214081D7000120E406D080800C02709000100072061
S214081D808CA70720B506080080B50F4E00240F4D17
S214081D902346642221463068A8470028F8D00C4B12
S214081DA0DB6B13F0006F4FF00062094B14BF5A63E9
S214081DB01A630848084B9847234622462146074890
S214081DC00068074FB847E3E794A707206D080800A0
S214081DD000100E40C027090001000720A0A7072012
S214081DE0B506080080B50F4E00240F4F0F4D23464A
S214081DF0642221463068A8470028F8D0FB6B13F405
S214081E00001F4FF4001314BF7B633B630848094B5D
S214081E10984723462246214607480068074DA847A4
S214081E20E4E700BF8CA7072000120E406D080800E4
S214081E30C02709000100072094A70720B506080058
S214081E4070B584B0484B9847484B98470B20484C89
S214081E50A0470C20A0470D20A0470E20A047454BC2
S214081E604FF400121A61C3F8A020A3F500734FF0D0
S214081E7000621A61C3F8A0200024039402943E4B23
S214081E80019302260096234640F26A423B493C48A4
S214081E903C4DA847039402943B4B01930096234677
S214081EA040F26A4239493A48A84703940294394BA3
S214081EB001930096234640F26A4237493748A847B6
S214081EC0032221460120364B9847364B186020B12E
S214081ED0234622462146344CA047324C33492068D4
S214081EE0334B984700231A4619462068314CA047BA
S214081EF00322002101202A4B98472F4B186020B157
S214081F0000231A461946284CA0472B4C2B49206814
S214081F10274B984700231A4619462068254CA047A1
S214081F200322002101201E4B9847254B186020B13C
S214081F3000231A4619461C4CA047214C2149206804
S214081F401B4B984700231A4619462068194CA04789
S214081F5000231A46194613480068134CA0471A4B24
S214081F609847002004B070BDE11608004517080021
S214081F70591B080000120E409CA7072038230800AB
S214081F80E51D0800AD0A080090A7072040230800B2
S214081F90891D080098A70720482308002D1D08005B
S214081FA0610608008CA70720B5060800502308001D
S214081FB0D50908006D08080094A707205C230800C8
S214081FC0A0A7072068230800B10C080070B50F4EBC
S214081FD00F4D761BB61018BF002405D0013455F8EF
S214081FE0043B9847A642F9D10A4E0B4D00F0C4F9B7
S214081FF0761BB61018BF002406D0013455F8043BEB
S2140820009847A642F9D170BD70BD00BF842308006A
S214082010842308008C23080084230800844641EAA9
S214082020000313F0030349D1403A23D30B68036037
S2140820304B6843608B688360CB68C3600B69036139
S2140820404B6943618B698361CB69C3610B6A036221
S2140820504B6A43628B6A8362CB6AC3620B6B036309
S2140820604B6B43638B6B8363CB6BC36340304031EE
S214082070403ADBD230320BD30B6803604B684360C0
S2140820808B688360CB68C36010301031103AF3D287
S2140820900C3205D351F8043B40F8043B043AF9D215
S2140820A0043208D0D2071CBF11F8013B00F8013BE8
S2140820B001D30B8803806046704700BF082A13D3F5
S2140820C08B07B1D010F00303AED0C3F10403D21AC5
S2140820D0DB071CBF11F8013B00F8013BA4D331F81D
S2140820E0023B20F8023B9FE7043AD9D3013A11F89D
S2140820F0013B00F8013BF9D20B7803704B7843702C
S2140821008B7883706046704770B4860746D0541E36
S214082110002A41D0CAB2034602E014F1FF343BD38A
S21408212003F8012B9D07F8D1032C2ED9CDB245EA2A
S21408213005250F2C45EA054519D9264603F1100250
S214082140103E0F2E42F8105C42F80C5C42F8085C11
S21408215042F8045C02F11002F2D8A4F1100222F050
S2140821600F0204F00F041032032C13440DD91E4638
S2140821702246043A032A46F8045BFAD8221F22F0BD
S21408218003020432134404F003042CB1C9B21C44FD
S21408219003F8011B9C42FBD170BC704714460346EB
S2140821A0C2E700BF40EA010313F0030F70B403460A
S2140821B024D0A2B10C78013A1C70013101333CB12D
S2140821C06AB111F8014B013A03F8014B002CF7D11C
S2140821D02AB100211A4403F8011B9A42FBD170BCAD
S2140821E070470E4651F8045BA5F1013424EA05044D
S2140821F014F0803F05D1043A43F8045B032AF0D86C
S214082200D7E73146D6E700BF024B13B1024800F0C5
S21408221005B8704700000000292208000023014680
S2140822201A46184600F01EB838B50A4C0A4D641B04
S214082230A4100AD004F18043013B05EB8305013C5A
S21408224055F804399847002CF9D1BDE8384000F015
S2140822509DB800BF9C23080098230800704700BF5D
S214082260704700BF2DE9F8432C4D06462868984667
S2140822700F469146FFF7F2FF294B1C68D4F8483101
S214082280002B3ED05A681F2A1CDC02F1010E76B1DC
S214082290012103EB8204C4F88890D3F888019140A2
S2140822A00843022EC3F88801C4F8088123D00232F6
S2140822B0C3F804E0286843F82270FFF7D1FF00202F
S2140822C0BDE8F883174B0BB34FF4C870AFF3008024
S2140822D00346D8B10020D4F848114FF0010E5860D4
S2140822E019600246C4F84831C3F88801C3F88C015F
S2140822F0002EDCD0CCE7D3F88C010143C3F88C1150
S214082300D5E704F5A673C4F84831BBE72868FFF795
S214082310A7FF4FF0FF30BDE8F88300BF7005072021
S214082320742308000000000049444C4500000000E3
S214082330546D7220537663004C45442031000000EB
S2140823404C454420320000004C4544203300000031
S21408235053656D6170686F726520310053656D61F5
S21408236070686F726520320053656D6170686F72B1
S2140823706520330048010720F8B500BFF8BC08BC44
S2140823809E4670470922080019010800F8B500BFE4
S210082390F8BC08BC9E467047F500080024
S21408239CBFF35F8F0138FBD1704700004FF48063A2
S2140823AC204A136002F5007213601F4B1B6A13F069
S2140823BC807F07D11D4A1C4B1A621A46936E13F07F
S2140823CC010FFBD01A4A184B1A621A46936E13F46E
S2140823DC803FFBD0144A136B23F0030343F001032E
S2140823EC1363936E13F0080FFBD0124A0E4B9A62C7
S2140823FC1A46936E13F0020FFBD011220A4B1A637F
S21408240C1A46936E13F0080FFBD01222064B1A636B
S21408241C1A46936E13F0080FFBD0074A074B1A6040
S21408242C704700BF000A0E4000060E400908370029
S21408243C09083701013F0D2000BD0105440107209E
S21408244C1B4B984215D91B4B984219D91A4B9842D4
S21408245C1ED91A4B984223D9194B984294BF4FF45D
S21408246C80634FF4A063174A136002F5007213607A
S21408247C70470023134A136002F500721360704706
S21408248C4FF480730F4A136002F50072136070479E
S21408249C4FF400730B4A136002F500721360704712
S2140824AC4FF44073074A136002F5007213607047C6
S2140824BCBFEA21017FF0FA02FF8FD003FFB3C404F2
S2140824CC7F4A5D05000A0E40AAAAAAAA00A0000028
S2140824DCFFFFFFFF00093D00000000003404072042
S2140824EC9C040720040507200000000000000000DC
S2140824FC00000000000000000000000000000000C3
S21408250C00000000000000000000000000000000B2
S21408251C00000000000000000000000000000000A2
S21408252C0000000000000000000000000000000092
S21408253C0000000000000000000000000000000082
S21408254C0000000000000000000000000000000072
S21408255C0000000000000000000000000000000062
S21408256C0000000000000000000000000000000052
S21408257C0000000000000000000000000000000042
S21408258C01000000000000000E33CDAB34126DE6DF
S21408259CECDE05000B000000000000000000000048
S2140825AC0000000000000000000000000000000012
S2140825BC0000000000000000000000000000000002
S2140825CC00000000000000000000000000000000F2
S2140825DC00000000000000000000000000000000E2
S20808290CB0A707203C
S804081B7D5B
